:100000000C943B010C9458010C9458010C94580129
:100010000C9458010C9458010C9458010C945801FC
:100020000C9458010C9458010C9458010C945801EC
:100030000C9458010C9458010C9458010C945801DC
:100040000C9458010C9458010C9458010C945801CC
:100050000C9458010C9458010C9458010C945801BC
:100060000C9458010C94580105A84CCDB2D44EB94B
:100070003836A9020C50B9918688083CA6AAAA2A4B
:10008000BE000000803F446F6E6500416C6C6F6382
:100090006174696E67204D656D6F72790047656E9A
:1000A00065726174696E67205461626C65730000EB
:1000B0000000000000002F00000007000700147F70
:1000C000147F14242A7F2A12C4C8102646364955A4
:1000D00022500005030000001C2241000041221CA8
:1000E0000014083E081408083E08080000503000BC
:1000F0001010101010006060000020100804023E74
:100100005149453E00427F400042615149462141EC
:10011000454B311814127F1027454545393C4A4953
:1001200049300171090503364949493606494929CB
:100130001E0036360000005636000008142241002A
:100140001414141414004122140802015109063237
:100150004959513E7E1111117E7F494949363E4130
:100160004141227F4141221C7F494949417F090980
:1001700009013E4149497A7F0808087F00417F41D3
:10018000002040413F017F081422417F4040404011
:100190007F020C027F7F0408107F3E4141413E7F79
:1001A000090909063E4151215E7F09192946464940
:1001B00049493101017F01013F4040403F1F20403C
:1001C000201F3F4038403F6314081463070870083D
:1001D000076151494543007F414100552A552A5541
:1001E0000041417F000402010204404040404000C1
:1001F0000102040020545454787F48444438384461
:10020000444420384444487F3854545418087E09E4
:1002100001020C5252523E7F0804047800447D4093
:10022000002040443D007F1028440000417F4000F2
:100230007C041804787C0804047838444444387CEE
:1002400014141408081414187C7C08040408485476
:10025000545420043F4440203C4040207C1C20401B
:10026000201C3C4030403C44281028440C50505046
:100270003C4464544C4411241FBECFEFD8E0DEBF91
:10028000CDBF12E0A0E0B1E0E0EBFDE202C00590DE
:100290000D92AE37B107D9F714E0AEE7B2E001C076
:1002A0001D92A738B107E1F70E94FD010C94D61604
:1002B0000C940000640F751F9C01429FC001439F76
:1002C000900D529F900D11240E94A413665D7F4FE4
:1002D000CB010895640F751F9C01429FC001439F8D
:1002E000900D529F900D11240E94A41328E130E03C
:1002F000261B370BC901089587B18E7387B90E94F9
:100300005F088FE70E94210880E40E9421080E9474
:10031000470881E061E00E94C10481E06DE970E07E
:100320000E94FA050E94B7078CE691E00E94021431
:1003300080937D0490937E040E94A80C90937E0489
:1003400080937D040E94470808956F927F928F9258
:100350009F92AF92BF92CF92DF92EF92FF920F9354
:100360001F93CF93DF934B016A01E90138015701D5
:10037000BA0140E550E00E945A017C0197FD2EC071
:10038000CE01B50140E550E00E945A018C0197FD75
:1003900025C0C401B60140E550E00E946A01EC01AD
:1003A00097FD1CC0C301B50140E550E00E946A0101
:1003B0009C0197FD13C085E5E816F1047CF4C13378
:1003C000D10564F4053511054CF42133310534F4BD
:1003D0008E2D602F4C2F01E00E947106DF91CF918E
:1003E0001F910F91FF90EF90DF90CF90BF90AF9053
:1003F0009F908F907F906F9008952F923F924F9291
:100400005F926F927F928F929F92AF92BF92CF92A4
:10041000DF92EF92FF920F931F93DF93CF93CDB7AD
:10042000DEB7C255D0400FB6F894DEBF0FBECDBFC9
:100430000E947C0181E061E00E94C10481E06BE8E0
:1004400070E00E94FA050E94B70780E490E00E94E5
:100450000214182F092F8CE090E00E9402141C0156
:100460008CE090E00E94021462968FAF62976396D0
:100470009FAF63970E94470881E061E00E94C1043A
:1004800081E066E870E00E94FA050E94B707DE018D
:100490001596E0E2F1E080E101900D928150E1F7E4
:1004A000DE015596E0E1F1E080E101900D9281508E
:1004B000E1F7DE019596E0E0F1E080E101900D9238
:1004C0008150E1F780E090E0A0E0B0E0F1018083AE
:1004D0009183A283B38384839583A683B78380E0CB
:1004E00090E0A0EAB1E480879187A287B387812F4B
:1004F000902F0E948F08B1010E94EB0825969FAFB4
:100500008EAF2597CE0105969EAB8DAB25E1E22EF1
:10051000F12CEC0EFD1E8E010B5D1F4F67018CE070
:1005200090E00E940214FC01ADA9BEA92D913D915D
:100530004D915C912083318342835383D7012D9168
:100540003D914D915C912483358346835783D80137
:100550002D913D914D915C91208731874287538742
:1005600025968EAD9FAD2597BF010E940D09FC0118
:100570002081318142815381ADA9BEA92D933D9344
:100580004D935D93BEABADAB2481358146815781E0
:10059000D7012D933D934D935D937D01208531854A
:1005A00042855385D8012D933D934D935D938D01E5
:1005B0000E94AF14EDA9FEA9EC15FD0509F0AFCF1F
:1005C00080E090E0A0E0B0E023968CAF9DAFAEAFAE
:1005D000BFAF23978BAF9CAFADAFBEAF8FAB98AF24
:1005E000A9AFBAAF86B186B186B186B186B125967C
:1005F0008EAD9FAD25970E948F088C0123966CAD20
:100600007DAD8EAD9FAD239720E030E040E85FE305
:100610000E94810E23966CAF7DAF8EAF9FAF239764
:1006200020E030E044EB53E40E945410882354F05F
:1006300080E090E0A0E0B0E023968CAF9DAFAEAF3D
:10064000BFAF23976BAD7CAD8DAD9EAD20E030E0AC
:1006500040E85FE30E94810E6BAF7CAF8DAF9EAF31
:1006600020E030E044EB53E40E945410882344F02F
:1006700080E090E0A0E0B0E08BAF9CAFADAFBEAF4C
:100680006FA978AD89AD9AAD20E030E040E85FE336
:100690000E94810E6FAB78AF89AF9AAF20E030E057
:1006A00044EB53E40E945410882344F080E090E02F
:1006B000A0E0B0E08FAB98AFA9AFBAAF80E090E018
:1006C000A0E0B0E0F10180839183A283B3838483AF
:1006D0009583A683B78380879187A287B387239664
:1006E0008CAD9DADAEADBFAD23976396EEADFFADC6
:1006F000639780839183A283B3838BAD9CADADADB3
:10070000BEAD6396EEADFFAD639784839583A683FC
:10071000B7838FA998ADA9ADBAAD6396EEADFFAD25
:10072000639780879187A287B38740917D0450911A
:100730007E04C80163966EAD7FAD63970E94DE0BA9
:10074000B1010E94EB0825969FAF8EAF25978E01D1
:100750000B5F1F4F95E1C92ED12CCC0EDD1E85E21B
:10076000E82EF12CEC0EFD1E8CE090E00E940214AD
:10077000FC01D8012D913D914D915C9120833183F5
:1007800042835383D6012D913D914D915C912483F9
:10079000358346835783D7012D913D914D915C91CF
:1007A000208731874287538725968EAD9FAD259749
:1007B000BF010E940D09FC012081318142815381DA
:1007C000D8012D933D934D935D938D012481358107
:1007D00046815781D6012D933D934D935D936D01D5
:1007E0002085318542855385D7012D933D934D93C7
:1007F0005D937D010E94AF14EDA9FEA90E171F079E
:1008000009F0B2CF23966CAD7DAD8EAD9FAD239731
:100810000E94E210DC01CB01BE016F5F7F4F4AE016
:1008200050E00E9410150E94470881E061E00E949C
:10083000C10481E0BE016F5F7F4F0E94E0056D81C2
:100840007E818F8198850E94E21029966CAF7DAFE2
:100850008EAF9FAF29976D897E898F89988D0E9471
:10086000E2102D966CAF7DAF8EAF9FAF2D976DA12F
:100870007EA18FA198A50E94E21061966CAF7DAF1A
:100880008EAF9FAF619769857A858B859C850E9425
:10089000E2102B013C01698D7A8D8B8D9C8D0E941D
:1008A000E2104B015C0169A57AA58BA59CA50E946D
:1008B000E2106B017C0127968EAD9FAD27972B969A
:1008C0006EAD7FAD2B972F964EAD5FAD2F979201FA
:1008D000840176010E94A5016D857E858F859889AA
:1008E0000E94E2102B013C016D8D7E8D8F8D98A1B1
:1008F0000E94E2104B015C016DA57EA58FA598A911
:100900000E94E2106B017C0127968EAD9FAD279768
:100910002B966EAD7FAD2B972F964EAD5FAD2F977B
:100920009201840176010E94A50169897A898B89E7
:100930009C890E94E2102B013C0169A17AA18BA144
:100940009CA10E94E2104B015C0169A97AA98BA9C4
:100950009CA90E94E2106B017C0127968EAD9FAD91
:1009600027972B966EAD7FAD2B972F964EAD5FAD33
:100970002F979201840176010E94A5010E94B7077A
:1009800031CE982F8F30A0F4673090F486E0989F96
:10099000C00111248A55904024E5629F90011124E2
:1009A000820F931F909377048093760480E00895DC
:1009B00081E00895BF92CF92DF92EF92FF920F9362
:1009C0001F93CF93DF93282FA0917604B0917704E3
:1009D0008091780490917904A817B90724F4B09312
:1009E0007904A0937804862F80528C3508F06CE54A
:1009F0002130D1F485E0689FC0011124FC01E15F42
:100A0000FF4FED01C258DD4FBC016C5E7F4F8491FA
:100A1000880F89933196E617F707C9F71596B093B3
:100A20007704A09376049EC0223009F09BC09D01FC
:100A30002455304080917804909179042817390723
:100A400024F4309379042093780437FF02C081E0C6
:100A5000ADC085E0689FC00111244FE0E42E40E066
:100A6000F42EE80EF91E890102581D4FED01C258FF
:100A7000DD4F34E1C32E30E0D32EC80ED91EF7016E
:100A80006491660F462F50E0CA0184709070FC019B
:100A9000EE0FFF1FE80FF91FEE0FFF1FEE0FFF1FF6
:100AA0009A0122703070C901880F991F820F931F1D
:100AB000880F991FBE2EB82A48705070CA01880F3F
:100AC000991F840F951F73E0880F991F7A95E1F79E
:100AD000B82A62956F7070E0CB01847090709C01B1
:100AE000220F331F280F391F220F331F220F331FEE
:100AF000AB0142705070CA01880F991F840F951F77
:100B0000880F991F282BAB0148705070CA01880FBD
:100B1000991F840F951F43E0880F991F4A95E1F7AD
:100B2000282B61707070CB01880F991F860F971F5B
:100B3000282BF801B082B182288329830894E11C14
:100B4000F11C0E5F1F4F2296EC14FD0409F097CFA5
:100B5000CD010B9668EF71E00E94A4139093770487
:100B600080937604209176043091770480917A0402
:100B700090917B048217930724F430937B04209395
:100B80007A04F901E258FD4F1082F1E0273F3F0758
:100B900031F4109277041092760482E007C02F5F40
:100BA0003F4F309377042093760480E0DF91CF911C
:100BB0001F910F91FF90EF90DF90CF90BF9008951D
:100BC0000F931F93CF93DF93082FEB0110E006C024
:100BD000802F0E94DA04813041F01F5FFE01E10F97
:100BE000F11D60816623A1F780E0DF91CF911F9115
:100BF0000F9108951F93CF93DF93182FEB01FB0103
:100C0000649108C0812F0E94DA04813031F021966E
:100C1000FE0164916623B1F780E0DF91CF911F91CF
:100C20000895582F853508F05AC0613308F057C031
:100C3000862F86958695869590E024E530E0829F04
:100C4000D001839FB00D929FB00D1124A50FB11D4F
:100C500053E0880F991F5A95E1F7681BFD01E25890
:100C6000FD4F2081442351F481E090E002C0880FC1
:100C7000991F6A95E2F78095282315C0413049F401
:100C800081E090E002C0880F991F6A95E2F7282B57
:100C90000AC0423041F481E090E002C0880F991F01
:100CA0006A95E2F72827FD01E258FD4F20838091E5
:100CB000780490917904A817B90720F4B0937904C7
:100CC000A093780480917A0490917B048A179B0703
:100CD00020F4B0937B04A0937A0480E0089581E02F
:100CE00008955F926F927F928F929F92AF92BF9280
:100CF000CF92DF92EF92FF920F931F93CF93DF93E8
:100D0000C82E562ED42E622E702E022F10E0041BF9
:100D10001109C62FD0E0C81BD10917FD04C0B1E0EE
:100D20008B2E912C06C0109501951F4F88248A9414
:100D3000982CD7FD04C0A1E0AA2EB12C06C0D095F6
:100D4000C195DF4FAA24AA94BA2C8C2D6D2D472D66
:100D50000E9411068823E9F57E01EE0CFF1C000FAE
:100D6000111F0E151F05CCF4C70195958795E80155
:100D7000C81BD90B0FC0D7FD03C0D80CCE19DF0993
:100D8000CA0C8C2D6D2D472D0E941106882309F564
:100D9000C00FD11FC51479F718C0C8019595879564
:100DA000E701C81BD90B0FC0D7FD03C0CA0CC01B7D
:100DB000D10BD80C8C2D6D2D472D0E941106882348
:100DC00041F4CE0DDF1DD61479F781E080937C04C9
:100DD00080E0DF91CF911F910F91FF90EF90DF9016
:100DE000CF90BF90AF909F908F907F906F905F90CB
:100DF0000895DF92EF92FF920F931F93CF93DF93AB
:100E0000E82EF62ED02E84E58E1530F180E386177D
:100E100018F1641710F400E012C0062F041B0FC075
:100E2000812F602F4D2D0E9411068823B1F41F5F82
:100E3000812F90E08C179D079CF30F5F04C0CE2D8F
:100E4000D0E0C20FD11D0F1510F41E2DF1CF81E09F
:100E500080937C0480E001C081E0DF91CF911F91FD
:100E60000F91FF90EF90DF900895AF92BF92CF92D5
:100E7000DF92EF92FF920F931F93CF93DF937C014A
:100E8000A62ED42EB22E12E0C12EC40E80E0C0E0F9
:100E9000D0E015E018C0853510F081E01AC0F701E8
:100EA000EC0FFD1F4081B49E402D1124812F66E27E
:100EB0002D2D01E00E94F9062196912F9C0D813085
:100EC00041F0812F192FCA1530F381E080937C0403
:100ED00080E0DF91CF911F910F91FF90EF90DF9015
:100EE000CF90BF90AF900895CF92DF92EF92FF9294
:100EF0000F931F93D82EE62EF22EC02E84E58D156B
:100F000000F18617F0F04133E0F480E38217C8F077
:100F1000D616C8F44217B8F4042F0BC0812F602FE7
:100F20004C2D0E941106882379F41F5F1E15B0F323
:100F30000F5F0F1510F41D2DF9CF81E080937C0415
:100F400002C081E001C080E01F910F91FF90EF90FF
:100F5000DF90CF9008952A98613011F4299A01C04A
:100F600029988EBD0DB407FEFDCF2A9A0895EF9201
:100F7000FF920F931F93CF93DF938091780490910A
:100F8000790497FF05C0109279041092780409C083
:100F9000885F914034F087EF91E0909379048093DB
:100FA000780480917A0490917B0497FF05C0109299
:100FB0007B0410927A0409C0885F914034F087EF77
:100FC00091E090937B0480937A04C0917804D0914F
:100FD0007904CE0164E570E00E94A413806860E0AB
:100FE0000E94AB07CE0164E570E00E94A413862F37
:100FF000806460E00E94AB07E0907A04F0907B048C
:101000008E0102581D4F07C0F80181918F0161E0E8
:101010000E94AB072196EC16FD06B4F787EF91E02E
:10102000909379048093780410927B0410927A0450
:1010300010927C04DF91CF911F910F91FF90EF9060
:1010400008951F93182F81E260E00E94AB07812F63
:10105000806860E00E94AB0780E260E00E94AB071E
:101060001F910895BC018EE792E048EF51E00E9485
:101070000715109279041092780487EF91E090930D
:101080007B0480937A0481E080937C04089588EF48
:1010900091E0EEE7F2E0DF019C011D92215030402B
:1010A000E1F7109279041092780487EF91E0909321
:1010B0007B0480937A0481E080937C0408952C9AC9
:1010C00084B18E6384B92C982C9A80E58CBD2A9AC1
:1010D00081E260E00E94AB0788EC60E00E94AB0711
:1010E00086E060E00E94AB0783E160E00E94AB070E
:1010F00080E260E00E94AB078CE060E00E94AB07FA
:1011000088EF91E0909379048093780410927B04A7
:1011100010927A040E9447080E94B7070895EF9240
:10112000FF920F931F93DF93CF93CDB7DEB7C054D9
:10113000D0400FB6F894DEBF0FBECDBFBC01DE01BC
:101140001196E0E3F1E080E401900D928150E1F727
:10115000FE0131969B01AE014F5B5F4FE080F18055
:1011600002811381D901ED92FD920D931C93139787
:10117000E480F580068117811496ED92FD920D931F
:101180001C931797E084F184028513851896ED92DD
:10119000FD920D931C931B97E484F58406851785B7
:1011A0001C96ED92FD920D931C931F977096205FF5
:1011B0003F4FE417F50791F6CB01C05CDF4F0FB648
:1011C000F894DEBF0FBECDBFCF91DF911F910F917D
:1011D000FF90EF900895CF93DF939C01FB018081F6
:1011E0009181A281B381E90188AB99ABAAABBBAB7A
:1011F00084819581A681B7818CAB9DABAEABBFAB33
:1012000080859185A285B385F90180AF91AFA2AFAA
:10121000B3AFC901DF91CF9108952F923F924F92C2
:101220005F926F927F928F929F92AF92BF92CF9276
:10123000DF92EF92FF920F931F93DF93CF93CDB77F
:10124000DEB72C970FB6F894DEBF0FBECDBF6C0192
:101250001B01DB018D909D90AD90BC90139714966F
:101260004D905D906D907C90179718968D919D9103
:101270000D90BC91A02D89839A83AB83BC83C5015B
:10128000B401F60124813581468157810E94AE0E5A
:101290007B018C01C301B201D60154962D913D9181
:1012A0004D915C9157970E94AE0E9B01AC01C80115
:1012B000B7010E94810E7B018C0169817A818B814B
:1012C0009C81F60124A135A146A157A10E94AE0E32
:1012D0009B01AC01C801B7010E94810E6D837E8322
:1012E0008F839887C501B401D60118962D913D9141
:1012F0004D915C911B970E94AE0E7B018C01C30146
:10130000B201F601208D318D428D538D0E94AE0EBB
:101310009B01AC01C801B7010E94810E7B018C01C9
:1013200069817A818B819C81D60198962D913D911E
:101330004D915C919B970E94AE0E9B01AC01C80140
:10134000B7010E94810E69877A878B879C87C501C8
:10135000B401F60120813181428153810E94AE0E99
:101360007B018C01C301B201D60150962D913D91B4
:101370004D915C9153970E94AE0E9B01AC01C80148
:10138000B7010E94810E7B018C0169817A818B817A
:101390009C81F60120A131A142A153A10E94AE0E71
:1013A0009B01AC01C801B7010E94810ED6011C96B9
:1013B0002D913D914D915C911F970E94AE0EF101D0
:1013C00060837183828393836D817E818F81988511
:1013D000D6015C962D913D914D915C915F970E9455
:1013E000AE0EF101648375838683978369857A8560
:1013F0008B859C85D6019C962D913D914D915C915C
:101400009F970E94AE0EF101608771878287938754
:10141000C1012C960FB6F894DEBF0FBECDBFCF91A1
:10142000DF911F910F91FF90EF90DF90CF90BF90D1
:10143000AF909F908F907F906F905F904F903F9074
:101440002F9008952F923F924F925F926F927F92CA
:101450008F929F92AF92BF92CF92DF92EF92FF92C4
:101460000F931F93DF93CF93CDB7DEB768970FB677
:10147000F894DEBF0FBECDBF1C018B012A0179019C
:10148000FB0160817181828193810E94D80CDC0113
:10149000CB01B7010E949C0C698B7A8B8B8B9C8B48
:1014A000F80164817581868197810E94D80CDC01E6
:1014B000CB01B7010E949C0C6D877E878F87988B2C
:1014C000F80160857185828593850E94D80CDC01C6
:1014D000CB01B7010E949C0C69877A878B879C8718
:1014E000F80160817181828193810E94D80CDC01B6
:1014F000CB01B7010E94460C6D837E838F83988752
:10150000F80164817581868197810E94D80CDC0185
:10151000CB01B7010E94460C69837A838B839C833D
:10152000F80160857185828593850E94D80CDC0165
:10153000CB01B7010E94460C3B014C0169857A85BD
:101540008B859C8529813A814B815C810E94AE0EFE
:101550002D813E814F8158850E94AE0E7B018C010A
:10156000C401B30129893A894B895C890E94AE0E76
:101570009B01AC01C801B7010E94500E5B016C01D8
:1015800069857A858B859C852D853E854F85588913
:101590000E94AE0EF20120813181428153810E946E
:1015A000AE0E7B018C01C601B501F20124813581AB
:1015B000468157810E94AE0E9B01AC01C801B70164
:1015C0000E94810E7B018C01C601B501F2012085CC
:1015D0003185428553850E94AE0E9B01AC01C80146
:1015E000B7010E94810E5B016C01F201608371837F
:1015F00082839383C401B30129813A814B815C8149
:101600000E94AE0E6D8B7E8B8F8B988FC401B301C1
:101610002D853E854F8558890E94AE0E9B01AC01F9
:10162000C601B5010E94AE0E3B014C016D897E8959
:101630008F89988D2D813E814F8158850E94AE0EF5
:101640007B018C0169857A858B859C8529893A89FE
:101650004B895C890E94AE0E9B01AC01C801B701A9
:101660000E94500EF20124813581468157810E94EB
:10167000AE0E9B01AC01C401B3010E94810E3B017F
:101680004C016D897E898F89988D29893A894B898A
:101690005C890E94AE0E7B018C0169857A858B8501
:1016A0009C852D813E814F8158850E94AE0E9B0105
:1016B000AC01C801B7010E94500EF20120853185AE
:1016C000428553850E94AE0E9B01AC01C401B3015B
:1016D0000E94810E3B014C01F20164837583868375
:1016E0009783C601B50190582D813E814F81588561
:1016F0000E94AE0E7B018C016D857E858F85988959
:101700002D813E814F8158850E94AE0EF2012085C9
:101710003185428553850E94AE0E9B01AC01C80104
:10172000B7010E94810E7B018C01F20160877187F5
:1017300082879387C601B501F10120813181428101
:1017400053810E94810EF2016083718382839383AF
:10175000C401B301F10124813581468157810E9482
:10176000810EF2016483758386839783C801B70174
:10177000F10120853185428553850E94810EF20159
:101780006087718782879387C20168960FB6F89445
:10179000DEBF0FBECDBFCF91DF911F910F91FF90A4
:1017A000EF90DF90CF90BF90AF909F908F907F9001
:1017B0006F905F904F903F902F900895CF92DF925F
:1017C000EF92FF920F931F937C018B016A01FB0143
:1017D00060817181828193812BED3FE049E450E487
:1017E0000E94AE0E20E030E044E353E40E94A80FD4
:1017F0000E94D80CDC01CB01B6010E949C0CF701C1
:101800006487758786879787F801648175818681EB
:1018100097812BED3FE049E450E40E94AE0E20E0BA
:1018200030E044E353E40E94A80F0E94D80CDC018E
:10183000CB01B6010E94460CF701648F758F868F2D
:10184000978FF80160857185828593852BED3FE048
:1018500049E450E40E94AE0E20E030E044E353E45B
:101860000E94A80F0E94D80CDC01CB01B6010E9497
:101870009C0CF70164A775A786A797A7C7011F91BE
:101880000F91FF90EF90DF90CF9008959C01DB01C6
:101890008B35910558F4220F331F220F331FA20FEF
:1018A000B31F6D917D918D919C9145C08B5590405A
:1018B0008A35910578F4E4EBF0E0E21BF30BEE0FD0
:1018C000FF1FEE0FFF1FE60FF71F608171818281FE
:1018D000938131C0C901855B90408A35910570F4D0
:1018E000245B304C220F331F220F331FA20FB31F74
:1018F0008D919D910D90BC91A02D12C081E02F3053
:10190000380790F0E8E6F1E0E21BF30BEE0FFF1F63
:10191000EE0FFF1FE60FF71F80819181A281B38137
:10192000BC01CD01905807C0B90180E090E00E9451
:1019300036110E943115089521E08E30920718F477
:10194000865A9F4F02C08E5091400E94460C0895C7
:10195000EF92FF920F931F93CF93DF938CE691E06A
:101960000E940214F82EE92E9C018901C0E0D0E00B
:10197000BE01882777FD8095982F0E9484100E94D1
:101980003115F80161937193819391938F012196A1
:10199000CB35D10569F78F2D9E2D0E94AF148F2D69
:1019A0009E2DDF91CF911F910F91FF90EF900895A1
:1019B000EF92FF920F931F937B018C0120E030E0A8
:1019C00040E05FE40E94541088238CF0C801B70106
:1019D00020E030E040E05FE40E94500E0E94E21000
:1019E0009B01AC01205030404040504806C0C80127
:1019F000B7010E94E2109B01AC01B901CA011F911D
:101A00000F91FF90EF900895A0E0B0E0EAE0FDE0D4
:101A10000C94CB13DC012B01FA019C91923008F459
:101A200039C1EB018881823008F433C1943069F404
:101A3000843009F02FC111969C91119789819817D4
:101A400009F428C1A0E7B1E025C1843009F421C11F
:101A50008230A9F4923009F01DC19A01AD0188E0ED
:101A6000EA010990AE01E90109929E018150C1F796
:101A7000E201898111969C918923818308C192306A
:101A800009F407C112962D903C901397EB018A81BF
:101A90009B811496AD90BD90CD90DC901797EC8013
:101AA000FD800E811F819101281B390BB90137FF81
:101AB00004C066277727621B730B603271050CF038
:101AC00061C0121613066CF537014801062E04C0DA
:101AD00096948794779467940A94D2F721E030E043
:101AE00040E050E004C0220F331F441F551F6A9589
:101AF000D2F721503040404050402E213F2140231A
:101B00005123211531054105510521F021E030E037
:101B100040E050E079018A01E628F72808291929D0
:101B20003CC0232BD1F1260E371E35014601062E6F
:101B300004C096948794779467940A94D2F721E02E
:101B400030E040E050E004C0220F331F441F551F17
:101B50006A95D2F721503040404050402A213B2125
:101B60004C215D21211531054105510521F021E070
:101B700030E040E050E059016A01A628B728C828A3
:101B8000D9280BC0821593052CF01C01AA24BB2474
:101B9000650103C0EE24FF24870111969C91D201B8
:101BA00011968C91981709F445C0992339F0A80132
:101BB00097012A193B094C095D0906C0A601950148
:101BC0002E193F09400B510B57FD08C0118233827B
:101BD000228224833583468357831DC081E081831D
:101BE0003382228288279927DC01821B930BA40B66
:101BF000B50B84839583A683B7830DC0220F331F53
:101C0000441F551F248335834683578382819381E4
:101C10000197938382832481358146815781DA013C
:101C2000C9010197A109B1098F5F9F4FAF4FBF4312
:101C300028F30BC0918333822282EA0CFB1C0C1D1B
:101C40001D1DE482F5820683178383E0808324814F
:101C500035814681578157FF1AC0C901AA2797FDD0
:101C6000A095BA2F81709070A070B070569547956E
:101C700037952795822B932BA42BB52B84839583A3
:101C8000A683B78382819381019693838283DF0148
:101C900001C0D201CD01CDB7DEB7E2E10C94E7136C
:101CA000A0E2B0E0E6E5FEE00C94D71369837A8306
:101CB0008B839C832D833E834F835887E9E0EE2EF0
:101CC000F12CEC0EFD1ECE010196B7010E94D3123D
:101CD0008E010F5E1F4FCE010596B8010E94D312F0
:101CE0008A8991E089278A8BC701B801AE01475ED6
:101CF0005F4F0E94040D0E94FE11A096E6E00C9436
:101D0000F313A0E2B0E0E7E8FEE00C94D713698398
:101D10007A838B839C832D833E834F835887F9E09E
:101D2000EF2EF12CEC0EFD1ECE010196B7010E94A4
:101D3000D3128E010F5E1F4FCE010596B8010E948F
:101D4000D312C701B801AE01475E5F4F0E94040D78
:101D50000E94FE11A096E6E00C94F313A0E2B0E01E
:101D6000E4EBFEE00C94CB1369837A838B839C8332
:101D70002D833E834F835887CE010196BE01675F56
:101D80007F4F0E94D312CE010596BE016F5E7F4F3A
:101D90000E94D3129985923088F089898230C8F0E8
:101DA000943019F4823051F404C0843029F4923014
:101DB00081F480E791E0C6C0923049F420E09A8532
:101DC0008A89981321E02A87CE010996BBC0823008
:101DD00049F420E09A858A89981321E02A8BCE0164
:101DE0004196B0C02D843E844F8458886D887E888B
:101DF0008F88988CEE24FF248701AA24BB246501D8
:101E000040E050E060E070E0E0E0F0E0C1018170AF
:101E10009070892BE9F0E60CF71C081D191D9A013A
:101E2000AB012A0D3B1D4C1D5D1D80E090E0A0E044
:101E3000B0E0E614F7040805190520F481E090E00D
:101E4000A0E0B0E0BA01A901480F591F6A1F7B1F2B
:101E5000AA0CBB1CCC1CDD1C97FE08C081E090E0E6
:101E6000A0E0B0E0A82AB92ACA2ADB2A3196E032DB
:101E7000F10549F0660C771C881C991C5694479410
:101E800037942794C3CFFA85EA892B893C898B85BF
:101E90009C85280F391F2E5F3F4F17C0CA018170E4
:101EA0009070892B61F016950795F794E79480E080
:101EB00090E0A0E0B0E8E82AF92A0A2B1B2B7695DF
:101EC0006795579547952F5F3F4F77FDE7CF0CC03C
:101ED000440F551F661F771F17FD4160EE0CFF1C56
:101EE000001F111F21503040403090E0590790E012
:101EF000690790E4790760F32B8F3C8FDB01CA01FF
:101F00008F779070A070B07080349105A105B105F5
:101F100061F447FD0AC0E114F1040105110529F03F
:101F2000405C5F4F6F4F7F4F40781A8EFE1711F065
:101F300081E08A8F4D8F5E8F6F8F78A383E0898FCA
:101F4000CE0149960E94FE11A096E2E10C94E7139F
:101F5000A8E1B0E0EEEAFFE00C94D31369837A8342
:101F60008B839C832D833E834F835887B9E0EB2E70
:101F7000F12CEC0EFD1ECE010196B7010E94D3128A
:101F80008E010F5E1F4FCE010596B8010E94D3123D
:101F90002985223008F47EC03989323010F4B80126
:101FA0007CC08A859A8989278A87243011F022305B
:101FB00031F4231709F06EC060E771E06EC0343071
:101FC00039F41D861E861F86188A1C861B8604C04F
:101FD000323021F484E08987B7015FC02B853C85CE
:101FE0008B899C89281B390B3C872B87ED84FE84C9
:101FF0000F851889AD88BE88CF88D88CEA14FB0479
:102000000C051D0540F4EE0CFF1C001F111F215094
:1020100030403C872B8720E030E040E050E080E01B
:1020200090E0A0E0B0E460E070E0EA14FB040C058E
:102030001D0540F0282B392B4A2B5B2BEA18FB0897
:102040000C091D09B695A79597958795EE0CFF1C71
:10205000001F111F6F5F7F4F6F31710531F7DA017C
:10206000C9018F779070A070B07080349105A10580
:10207000B10561F427FD0AC0E114F1040105110561
:1020800029F0205C3F4F4F4F5F4F20782D873E87D0
:102090004F87588BBE01675F7F4FCB010E94FE11B7
:1020A0006896EAE00C94EF13A8E1B0E0EAE5F0E10D
:1020B0000C94D71369837A838B839C832D833E830F
:1020C0004F83588789E0E82EF12CEC0EFD1ECE01DF
:1020D0000196B7010E94D3128E010F5E1F4FCE01F1
:1020E0000596B8010E94D3128985823040F0898913
:1020F000823028F0C701B8010E944B1301C08FEF56
:102100006896E6E00C94F313A8E0B0E0EAE8F0E1AA
:102110000C94D4139B01AC0183E08983DA01C901DB
:102120008827B7FD83959927AA27BB27B82E2115A5
:1021300031054105510519F482E089833AC08823AD
:10214000A9F0203080E0380780E0480780E8580791
:1021500029F460E070E080E09FEC30C0EE24FF24C2
:102160008701E21AF30A040B150B02C079018A01F8
:102170008EE1C82ED12CDC82CB82ED82FE820F83D1
:102180001887C801B7010E94AF11019718161906E8
:1021900084F4082E04C0EE0CFF1C001F111F0A94CB
:1021A000D2F7ED82FE820F831887C81AD90ADC8223
:1021B000CB82BA82CE0101960E94FE112896E9E0F8
:1021C0000C94F013ACE0B0E0E8EEF0E10C94DB131B
:1021D00069837A838B839C83CE010196BE016B5FFA
:1021E0007F4F0E94D3128D81823061F1823050F195
:1021F000843021F48E81882351F12EC02F813885BF
:1022000037FD20C06E812F3131051CF06623F9F0B7
:1022100023C08EE190E0821B930B29853A854B8584
:102220005C8504C056954795379527958A95D2F7D2
:102230006623B1F050954095309521953F4F4F4F13
:102240005F4F0EC020E030E040E050E009C02FEFCB
:102250003FEF4FEF5FE704C020E030E040E050E8A0
:10226000B901CA012C96E2E00C94F713A8E0B0E0A3
:10227000ECE3F1E10C94D3137B018C016115710542
:102280008105910519F482E0898360C083E0898328
:102290008EE1C82ED12CDC82CB82ED82FE820F83B0
:1022A0001887C801B7010E94AF11FC013197F7FFF1
:1022B0003BC0222733272E1B3F0B57016801022EFC
:1022C00004C0D694C794B794A7940A94D2F740E078
:1022D00050E060E070E081E090E0A0E0B0E004C099
:1022E000880F991FAA1FBB1F2A95D2F70197A10932
:1022F000B1098E219F21A023B1230097A105B1052B
:1023000021F041E050E060E070E04A295B296C294F
:102310007D294D835E836F8378878EE190E08E1BED
:102320009F0B9C838B8312C0309781F00E2E04C0CC
:10233000EE0CFF1C001F111F0A94D2F7ED82FE82E3
:102340000F831887CE1ADF0ADC82CB821A82CE0175
:1023500001960E94FE112896EAE00C94EF13EF928A
:10236000FF920F931F937B018C0180E0E81680E0C1
:10237000F80681E0080780E0180788F48FEFE81678
:10238000F1040105110531F028F088E090E0A0E0AB
:10239000B0E017C080E090E0A0E0B0E012C080E0C4
:1023A000E81680E0F80680E0080781E0180728F0CA
:1023B00088E190E0A0E0B0E004C080E190E0A0E01F
:1023C000B0E020E230E040E050E0281B390B4A0B3F
:1023D0005B0B04C016950795F794E7948A95D2F79E
:1023E000F701E858FE4F8081281B31094109510946
:1023F000C9011F910F91FF90EF900895DF92EF9226
:10240000FF920F931F93FC01E480F58006811781F2
:10241000D1808081823048F480E090E0A0E1B0E09B
:10242000E82AF92A0A2B1B2BA5C0843009F49FC087
:10243000823021F4EE24FF24870105C0E114F10469
:102440000105110519F4E0E0F0E096C062817381A6
:102450009FEF623879070CF05BC022E83FEF261B44
:10246000370B2A3131052CF020E030E040E050E01D
:102470002AC0B801A701022E04C07695679557952A
:1024800047950A94D2F781E090E0A0E0B0E004C064
:10249000880F991FAA1FBB1F2A95D2F70197A10980
:1024A000B1098E219F21A023B1230097A105B10579
:1024B00021F081E090E0A0E0B0E09A01AB01282B90
:1024C000392B4A2B5B2BDA01C9018F779070A070F2
:1024D000B07080349105A105B10539F427FF09C01A
:1024E000205C3F4F4F4F5F4F04C0215C3F4F4F4F29
:1024F0005F4FE0E0F0E02030A0E03A07A0E04A07BC
:10250000A0E45A0710F0E1E0F0E079018A0127C069
:102510006038710564F5FB01E158FF4FD801C70130
:102520008F779070A070B07080349105A105B105CF
:1025300039F4E7FE0DC080E490E0A0E0B0E004C014
:102540008FE390E0A0E0B0E0E80EF91E0A1F1B1F29
:1025500017FF05C016950795F794E794319687E025
:1025600016950795F794E7948A95D1F705C0EE2460
:10257000FF248701EFEFF0E06E2F679566276795E0
:10258000902F9F77D794DD24D7948E2F8695492F4F
:10259000462B582F5D29B701CA011F910F91FF905B
:1025A000EF90DF900895FC01DB0140815181228191
:1025B000622F6F7770E0221F2227221F9381892FBD
:1025C000880F822B282F30E0991F9927991F119689
:1025D0009C93119721153105A9F541155105610508
:1025E000710511F482E037C082E89FEF13969C9347
:1025F0008E9312979A01AB0167E0220F331F441F9D
:10260000551F6A95D1F783E08C930DC0220F331FBD
:10261000441F551F12968D919C9113970197139605
:102620009C938E931297203080E0380780E0480713
:1026300080E4580758F314962D933D934D935C9383
:10264000179708952F3F310579F44115510561051C
:10265000710519F484E08C93089564FF03C081E050
:102660008C9312C01C9210C02F57304013963C938D
:102670002E93129783E08C9387E0440F551F661FBB
:10268000771F8A95D1F7706414964D935D936D937F
:102690007C93179708951F93DC01FB019C91923066
:1026A00008F447C08081823008F443C0943051F46C
:1026B00011961C91843099F58181682F70E0611B1F
:1026C00071093FC0843021F0923031F48230B9F189
:1026D0008181882389F12DC011961C911197823038
:1026E000F1F081811817D9F412962D913C9113972E
:1026F000828193818217930794F028173907BCF0E1
:1027000014968D919D910D90BC91A02D24813581C1
:1027100046815781281739074A075B0718F41123A8
:1027200041F00AC082179307A407B50740F41123AC
:1027300019F061E070E005C06FEF7FEF02C060E06C
:1027400070E0CB011F91089597FB092E07260AD050
:1027500077FD04D00CD006D000201AF47095619556
:102760007F4F0895F6F7909581959F4F0895AA1B86
:10277000BB1B51E107C0AA1FBB1FA617B70710F06C
:10278000A61BB70B881F991F5A95A9F7809590959E
:10279000BC01CD0108952F923F924F925F926F92AC
:1027A0007F928F929F92AF92BF92CF92DF92EF92E1
:1027B000FF920F931F93CF93DF93CDB7DEB7CA1B62
:1027C000DB0B0FB6F894DEBF0FBECDBF09942A888D
:1027D000398848885F846E847D848C849B84AA8435
:1027E000B984C884DF80EE80FD800C811B81AA81C2
:1027F000B981CE0FD11D0FB6F894DEBF0FBECDBF8D
:10280000ED010895CF93DF93BC018230910510F460
:1028100062E070E0A0918504B0918604ED01E0E0F3
:10282000F0E040E050E021C0888199818617970749
:1028300069F48A819B81309719F09383828304C065
:102840009093860480938504FE0134C0681779074D
:1028500038F44115510519F08417950708F4AC01B7
:10286000FE018A819B819C01E9012097E9F64115CF
:102870005105A9F1CA01861B970B049708F4BA0108
:10288000E0E0F0E02AC08D919C91119784179507A4
:10289000F9F46417750781F412968D919C91139742
:1028A000309719F09383828304C0909386048093B9
:1028B0008504FD0132964FC0CA01861B970BFD01AE
:1028C000E80FF91F6193719302978D939C9343C016
:1028D000FD01828193819C01D9011097A1F680911D
:1028E000830490918404892B41F480917A02909121
:1028F0007B02909384048093830440917C025091E6
:102900007D024115510541F44DB75EB780917802C3
:1029100090917902481B590B2091830430918404D3
:1029200024173507B0F4CA01821B930B861797074B
:1029300080F0AB014E5F5F4F8417950750F0420F58
:10294000531F5093840440938304F901619371935E
:1029500002C0E0E0F0E0CF01DF91CF910895CF9386
:10296000DF93009709F450C0EC0122971B821A8272
:10297000A0918504B0918604109709F140E050E0E1
:10298000AC17BD0708F1BB83AA83FE0121913191E9
:10299000E20FF31FAE17BF0779F48D919C91119749
:1029A000280F391F2E5F3F4F3983288312968D9150
:1029B0009C9113979B838A834115510571F4D093A1
:1029C0008604C093850420C012968D919C91139724
:1029D000AD01009711F0DC01D3CFFA01D383C2839C
:1029E00021913191E20FF31FCE17DF0769F488813F
:1029F0009981280F391F2E5F3F4FFA0131832083C1
:102A00008A819B8193838283DF91CF910895FB011B
:102A1000DC0102C005900D9241505040D8F7089556
:102A2000FB019F01E8944230C4F04532B4F44A30CF
:102A300029F497FB1EF4909581959F4F642F77277B
:102A40000E94B713805D8A330CF0895D8193CB01BE
:102A50000097A1F716F45DE251931082C9010C941E
:102A600037159F9315D00F9007FCEE5F38C0DC013F
:102A7000FC01672F71917723E1F7329704C07C91B5
:102A80006D9370836291AE17BF07C8F30895CEC0EF
:102A90003FD0E8F3E894E0E0BB279F57F0F02AED41
:102AA0003FE049EC06C0EE0FBB0F661F771F881F83
:102AB00028F0B23A62077307840728F0B25A620B13
:102AC000730B840BE3959A9572F7803830F49A95DE
:102AD000BB0F661F771F881FD2F790489BC0EF93EC
:102AE000E0FF06C0A2EA2AED3FE049EC5FEB37D0F9
:102AF000BFD00F90039401FC9058E8E6F0E099C035
:102B000057FD9058440F551F59F05F3F71F047959E
:102B1000880F97FB991F61F09F3F79F08795089583
:102B2000121613061406551FF2CF4695F1DF08C0A2
:102B3000161617061806991FF1CF869571056105BF
:102B40000894089587D030F08CD020F031F49F3F66
:102B500011F41EF46BC00EF4E095E7FB53C0E92FAF
:102B6000CFDF80F3BA17620773078407950718F061
:102B700071F49EF58EC00EF4E0950B2EBA2FA02DA9
:102B80000B01B90190010C01CA01A0011124FF271A
:102B9000591B99F0593F50F4503E68F11A16F04015
:102BA000A22F232F342F4427585FF3CF4695379514
:102BB0002795A795F0405395C9F77EF41F16BA0BD9
:102BC000620B730B840BBAF09150A1F0FF0FBB1F87
:102BD000661F771F881FC2F70EC0BA0F621F731FD0
:102BE000841F48F4879577956795B795F7959E3F2D
:102BF00008F0B3CF9395880F08F09927EE0F9795BB
:102C00008795089597F99F6780E870E060E00895E0
:102C10009F3F31F0915020F4879577956795B79550
:102C2000880F911D9695879597F908959FEF80ECF1
:102C300008959F938F937F936F93FF93EF939B01DF
:102C4000AC018CD8EF91FF912BD02F913F914F91F8
:102C50005F9184C800240A94161617061806090600
:102C6000089500240A941216130614060506089502
:102C7000092E0394000C11F4882352F0BB0F40F48A
:102C8000BF2B11F460FF04C06F5F7F4F8F4F9F4FCA
:102C90000895E894BB2766277727CB0197F9089515
:102CA000DF93CF931F930F93FF92EF92DF927B01FD
:102CB0008C01689405C0DA2EEF0121D0FE01E89462
:102CC000A5912591359145915591AEF3EF0147DFDF
:102CD000FE019701A801DA9479F7DF90EF90FF9059
:102CE0000F911F91CF91DF910895B4DF28F0B9DFE4
:102CF00018F0952309F086CF99CF1124CBCF00DFB0
:102D0000A0F3959FD1F3950F50E0551F629FF001FE
:102D1000729FBB27F00DB11D639FAA27F00DB11D57
:102D2000AA1F649F6627B00DA11D661F829F2227E0
:102D3000B00DA11D621F739FB00DA11D621F839F67
:102D4000A00D611D221F749F3327A00D611D231F3D
:102D5000849F600D211D822F762F6A2F11249F578B
:102D600050408AF0E1F088234AF0EE0FFF1FBB1FAE
:102D7000661F771F881F91505040A9F79E3F51054D
:102D800070F040CF87CF5F3FECF3983EDCF3869541
:102D900077956795B795F795E7959F5FC1F7FE2BF8
:102DA000880F911D9695879597F90895F894FFCF10
:102DB0000000803F0000A0410000803F0000803FF5
:102DC0000000803F0000803F0000A0410000803FE5
:102DD0000000803F0000803F0000803F0000A041D5
:102DE0000000803F00000000000000000000803F65
:102DF000000000000000803F000000000000803F55
:102E000000000000000000000000803F0000803F44
:102E10000000000000000000000000000000803FF3
:102E20000000000000000000000102020303030391
:102E3000040404040404040405050505050505054A
:102E4000050505050505050506060606060606062A
:102E50000606060606060606060606060606060612
:102E600006060606060606060707070707070707FA
:102E700007070707070707070707070707070707E2
:102E800007070707070707070707070707070707D2
:102E900007070707070707070707070707070707C2
:102EA00007070707070707070808080808080808AA
:102EB0000808080808080808080808080808080892
:102EC0000808080808080808080808080808080882
:102ED0000808080808080808080808080808080872
:102EE0000808080808080808080808080808080862
:102EF0000808080808080808080808080808080852
:102F00000808080808080808080808080808080841
:102F10000808080808080808080808080808080831
:0E2F20000808080808080808200087040000B8
:00000001FF
